{
  "contractName": "MerkleToken",
  "abi": [
    {
      "inputs": [
        {
          "internalType": "bytes32",
          "name": "root",
          "type": "bytes32"
        },
        {
          "internalType": "string",
          "name": "_gateway",
          "type": "string"
        }
      ],
      "stateMutability": "nonpayable",
      "type": "constructor"
    },
    {
      "anonymous": false,
      "inputs": [
        {
          "indexed": true,
          "internalType": "address",
          "name": "owner",
          "type": "address"
        },
        {
          "indexed": true,
          "internalType": "address",
          "name": "spender",
          "type": "address"
        },
        {
          "indexed": false,
          "internalType": "uint256",
          "name": "value",
          "type": "uint256"
        }
      ],
      "name": "Approval",
      "type": "event"
    },
    {
      "anonymous": false,
      "inputs": [
        {
          "indexed": true,
          "internalType": "address",
          "name": "from",
          "type": "address"
        },
        {
          "indexed": true,
          "internalType": "address",
          "name": "to",
          "type": "address"
        },
        {
          "indexed": false,
          "internalType": "uint256",
          "name": "value",
          "type": "uint256"
        }
      ],
      "name": "Transfer",
      "type": "event"
    },
    {
      "inputs": [
        {
          "internalType": "address",
          "name": "owner",
          "type": "address"
        },
        {
          "internalType": "address",
          "name": "spender",
          "type": "address"
        }
      ],
      "name": "allowance",
      "outputs": [
        {
          "internalType": "uint256",
          "name": "",
          "type": "uint256"
        }
      ],
      "stateMutability": "view",
      "type": "function",
      "constant": true
    },
    {
      "inputs": [
        {
          "internalType": "address",
          "name": "spender",
          "type": "address"
        },
        {
          "internalType": "uint256",
          "name": "amount",
          "type": "uint256"
        }
      ],
      "name": "approve",
      "outputs": [
        {
          "internalType": "bool",
          "name": "",
          "type": "bool"
        }
      ],
      "stateMutability": "nonpayable",
      "type": "function"
    },
    {
      "inputs": [
        {
          "internalType": "address",
          "name": "account",
          "type": "address"
        }
      ],
      "name": "balanceOf",
      "outputs": [
        {
          "internalType": "uint256",
          "name": "",
          "type": "uint256"
        }
      ],
      "stateMutability": "view",
      "type": "function",
      "constant": true
    },
    {
      "inputs": [],
      "name": "decimals",
      "outputs": [
        {
          "internalType": "uint8",
          "name": "",
          "type": "uint8"
        }
      ],
      "stateMutability": "view",
      "type": "function",
      "constant": true
    },
    {
      "inputs": [
        {
          "internalType": "address",
          "name": "spender",
          "type": "address"
        },
        {
          "internalType": "uint256",
          "name": "subtractedValue",
          "type": "uint256"
        }
      ],
      "name": "decreaseAllowance",
      "outputs": [
        {
          "internalType": "bool",
          "name": "",
          "type": "bool"
        }
      ],
      "stateMutability": "nonpayable",
      "type": "function"
    },
    {
      "inputs": [
        {
          "internalType": "address",
          "name": "spender",
          "type": "address"
        },
        {
          "internalType": "uint256",
          "name": "addedValue",
          "type": "uint256"
        }
      ],
      "name": "increaseAllowance",
      "outputs": [
        {
          "internalType": "bool",
          "name": "",
          "type": "bool"
        }
      ],
      "stateMutability": "nonpayable",
      "type": "function"
    },
    {
      "inputs": [],
      "name": "merkleRoot",
      "outputs": [
        {
          "internalType": "bytes32",
          "name": "",
          "type": "bytes32"
        }
      ],
      "stateMutability": "view",
      "type": "function",
      "constant": true
    },
    {
      "inputs": [],
      "name": "name",
      "outputs": [
        {
          "internalType": "string",
          "name": "",
          "type": "string"
        }
      ],
      "stateMutability": "view",
      "type": "function",
      "constant": true
    },
    {
      "inputs": [],
      "name": "symbol",
      "outputs": [
        {
          "internalType": "string",
          "name": "",
          "type": "string"
        }
      ],
      "stateMutability": "view",
      "type": "function",
      "constant": true
    },
    {
      "inputs": [],
      "name": "totalSupply",
      "outputs": [
        {
          "internalType": "uint256",
          "name": "",
          "type": "uint256"
        }
      ],
      "stateMutability": "view",
      "type": "function",
      "constant": true
    },
    {
      "inputs": [
        {
          "internalType": "address",
          "name": "recipient",
          "type": "address"
        },
        {
          "internalType": "uint256",
          "name": "amount",
          "type": "uint256"
        }
      ],
      "name": "transfer",
      "outputs": [
        {
          "internalType": "bool",
          "name": "",
          "type": "bool"
        }
      ],
      "stateMutability": "nonpayable",
      "type": "function"
    },
    {
      "inputs": [
        {
          "internalType": "address",
          "name": "sender",
          "type": "address"
        },
        {
          "internalType": "address",
          "name": "recipient",
          "type": "address"
        },
        {
          "internalType": "uint256",
          "name": "amount",
          "type": "uint256"
        }
      ],
      "name": "transferFrom",
      "outputs": [
        {
          "internalType": "bool",
          "name": "",
          "type": "bool"
        }
      ],
      "stateMutability": "nonpayable",
      "type": "function"
    },
    {
      "inputs": [
        {
          "internalType": "address",
          "name": "addr",
          "type": "address"
        },
        {
          "internalType": "uint256",
          "name": "balance",
          "type": "uint256"
        },
        {
          "internalType": "bytes",
          "name": "proof",
          "type": "bytes"
        }
      ],
      "name": "claimableBalanceWithProof",
      "outputs": [
        {
          "internalType": "uint256",
          "name": "",
          "type": "uint256"
        }
      ],
      "stateMutability": "view",
      "type": "function",
      "constant": true
    },
    {
      "inputs": [
        {
          "internalType": "address",
          "name": "addr",
          "type": "address"
        },
        {
          "internalType": "uint256",
          "name": "balance",
          "type": "uint256"
        },
        {
          "internalType": "bytes",
          "name": "proof",
          "type": "bytes"
        }
      ],
      "name": "claimWithProof",
      "outputs": [],
      "stateMutability": "nonpayable",
      "type": "function"
    },
    {
      "inputs": [
        {
          "internalType": "address",
          "name": "addr",
          "type": "address"
        }
      ],
      "name": "claim",
      "outputs": [
        {
          "internalType": "bytes",
          "name": "prefix",
          "type": "bytes"
        },
        {
          "internalType": "string",
          "name": "url",
          "type": "string"
        }
      ],
      "stateMutability": "view",
      "type": "function",
      "constant": true
    },
    {
      "inputs": [
        {
          "internalType": "address",
          "name": "addr",
          "type": "address"
        }
      ],
      "name": "claimableBalance",
      "outputs": [
        {
          "internalType": "bytes",
          "name": "prefix",
          "type": "bytes"
        },
        {
          "internalType": "string",
          "name": "url",
          "type": "string"
        }
      ],
      "stateMutability": "view",
      "type": "function",
      "constant": true
    }
  ],
  "bytecode": "0x60806040523480156200001157600080fd5b50604051620020a3380380620020a3833981810160405281019062000037919062000234565b6040518060400160405280600c81526020017f4d65726b6c6520746f6b656e00000000000000000000000000000000000000008152506040518060400160405280600681526020017f4d45524b4c4500000000000000000000000000000000000000000000000000008152508160039080519060200190620000bb9291906200011b565b508060049080519060200190620000d49291906200011b565b506012600560006101000a81548160ff021916908360ff1602179055505050816006819055508060079080519060200190620001129291906200011b565b50505062000343565b828054600181600116156101000203166002900490600052602060002090601f016020900481019282601f106200015e57805160ff19168380011785556200018f565b828001600101855582156200018f579182015b828111156200018e57825182559160200191906001019062000171565b5b5090506200019e9190620001a2565b5090565b5b80821115620001bd576000816000905550600101620001a3565b5090565b600081519050620001d28162000329565b92915050565b600082601f830112620001ea57600080fd5b815162000201620001fb82620002bc565b6200028e565b915080825260208301602083018583830111156200021e57600080fd5b6200022b838284620002f3565b50505092915050565b600080604083850312156200024857600080fd5b60006200025885828601620001c1565b925050602083015167ffffffffffffffff8111156200027657600080fd5b6200028485828601620001d8565b9150509250929050565b6000604051905081810181811067ffffffffffffffff82111715620002b257600080fd5b8060405250919050565b600067ffffffffffffffff821115620002d457600080fd5b601f19601f8301169050602081019050919050565b6000819050919050565b60005b8381101562000313578082015181840152602081019050620002f6565b8381111562000323576000848401525b50505050565b6200033481620002e9565b81146200034057600080fd5b50565b611d5080620003536000396000f3fe608060405234801561001057600080fd5b50600436106101005760003560e01c806360f3309b1161009757806395d89b411161006657806395d89b41146102eb578063a457c2d714610309578063a9059cbb14610339578063dd62ed3e1461036957610100565b806360f3309b1461023e57806370a082311461026f57806373479e9d1461029f5780638e4585e9146102bb57610100565b806323b872dd116100d357806323b872dd146101a25780632eb4a7ab146101d2578063313ce567146101f0578063395093511461020e57610100565b806306fdde0314610105578063095ea7b31461012357806318160ddd146101535780631e83409a14610171575b600080fd5b61010d610399565b60405161011a91906119b9565b60405180910390f35b61013d600480360381019061013891906114dc565b61043b565b60405161014a919061194c565b60405180910390f35b61015b610459565b6040516101689190611abb565b60405180910390f35b61018b60048036038101906101869190611428565b610463565b604051610199929190611982565b60405180910390f35b6101bc60048036038101906101b7919061148d565b610583565b6040516101c9919061194c565b60405180910390f35b6101da61065c565b6040516101e79190611967565b60405180910390f35b6101f8610662565b6040516102059190611ad6565b60405180910390f35b610228600480360381019061022391906114dc565b610679565b604051610235919061194c565b60405180910390f35b61025860048036038101906102539190611428565b61072c565b604051610266929190611982565b60405180910390f35b61028960048036038101906102849190611428565b61084c565b6040516102969190611abb565b60405180910390f35b6102b960048036038101906102b49190611518565b610894565b005b6102d560048036038101906102d09190611518565b610977565b6040516102e29190611abb565b60405180910390f35b6102f3610a36565b60405161030091906119b9565b60405180910390f35b610323600480360381019061031e91906114dc565b610ad8565b604051610330919061194c565b60405180910390f35b610353600480360381019061034e91906114dc565b610ba5565b604051610360919061194c565b60405180910390f35b610383600480360381019061037e9190611451565b610bc3565b6040516103909190611abb565b60405180910390f35b606060038054600181600116156101000203166002900480601f0160208091040260200160405190810160405280929190818152602001828054600181600116156101000203166002900480156104315780601f1061040657610100808354040283529160200191610431565b820191906000526020600020905b81548152906001019060200180831161041457829003601f168201915b5050505050905090565b600061044f610448610c4a565b8484610c52565b6001905092915050565b6000600254905090565b6060806373479e9d60e01b8360405160240161047f9190611931565b604051602081830303815290604052907bffffffffffffffffffffffffffffffffffffffffffffffffffffffff19166020820180517bffffffffffffffffffffffffffffffffffffffffffffffffffffffff83818316178352505050506007808054600181600116156101000203166002900480601f0160208091040260200160405190810160405280929190818152602001828054600181600116156101000203166002900480156105735780601f1061054857610100808354040283529160200191610573565b820191906000526020600020905b81548152906001019060200180831161055657829003601f168201915b5050505050905091509150915091565b6000610590848484610e1d565b6106518461059c610c4a565b61064c85604051806060016040528060288152602001611cce60289139600160008b73ffffffffffffffffffffffffffffffffffffffff1673ffffffffffffffffffffffffffffffffffffffff1681526020019081526020016000206000610602610c4a565b73ffffffffffffffffffffffffffffffffffffffff1673ffffffffffffffffffffffffffffffffffffffff168152602001908152602001600020546110b29092919063ffffffff16565b610c52565b600190509392505050565b60065481565b6000600560009054906101000a900460ff16905090565b6000610722610686610c4a565b8461071d8560016000610697610c4a565b73ffffffffffffffffffffffffffffffffffffffff1673ffffffffffffffffffffffffffffffffffffffff16815260200190815260200160002060008973ffffffffffffffffffffffffffffffffffffffff1673ffffffffffffffffffffffffffffffffffffffff1681526020019081526020016000205461110d90919063ffffffff16565b610c52565b6001905092915050565b606080638e4585e960e01b836040516024016107489190611931565b604051602081830303815290604052907bffffffffffffffffffffffffffffffffffffffffffffffffffffffff19166020820180517bffffffffffffffffffffffffffffffffffffffffffffffffffffffff83818316178352505050506007808054600181600116156101000203166002900480601f01602080910402602001604051908101604052809291908181526020018280546001816001161561010002031660029004801561083c5780601f106108115761010080835404028352916020019161083c565b820191906000526020600020905b81548152906001019060200180831161081f57829003601f168201915b5050505050905091509150915091565b60008060008373ffffffffffffffffffffffffffffffffffffffff1673ffffffffffffffffffffffffffffffffffffffff168152602001908152602001600020549050919050565b6000806108cc8360065487876040516020016108b19291906118d9565b60405160208183030381529060405280519060200120611162565b9150915081610910576040517f08c379a000000000000000000000000000000000000000000000000000000000815260040161090790611a3b565b60405180910390fd5b600060ff82166001901b60086000600885901c8152602001908152602001600020541614156109705760ff81166001901b60086000600884901c81526020019081526020016000206000828254179250508190555061096f8585611211565b5b5050505050565b60008060006109b18460065488886040516020016109969291906118d9565b60405160208183030381529060405280519060200120611162565b91509150816109f5576040517f08c379a00000000000000000000000000000000000000000000000000000000081526004016109ec90611a3b565b60405180910390fd5b600060ff82166001901b60086000600885901c815260200190815260200160002054161415610a28578492505050610a2f565b6000925050505b9392505050565b606060048054600181600116156101000203166002900480601f016020809104026020016040519081016040528092919081815260200182805460018160011615610100020316600290048015610ace5780601f10610aa357610100808354040283529160200191610ace565b820191906000526020600020905b815481529060010190602001808311610ab157829003601f168201915b5050505050905090565b6000610b9b610ae5610c4a565b84610b9685604051806060016040528060258152602001611cf66025913960016000610b0f610c4a565b73ffffffffffffffffffffffffffffffffffffffff1673ffffffffffffffffffffffffffffffffffffffff16815260200190815260200160002060008a73ffffffffffffffffffffffffffffffffffffffff1673ffffffffffffffffffffffffffffffffffffffff168152602001908152602001600020546110b29092919063ffffffff16565b610c52565b6001905092915050565b6000610bb9610bb2610c4a565b8484610e1d565b6001905092915050565b6000600160008473ffffffffffffffffffffffffffffffffffffffff1673ffffffffffffffffffffffffffffffffffffffff16815260200190815260200160002060008373ffffffffffffffffffffffffffffffffffffffff1673ffffffffffffffffffffffffffffffffffffffff16815260200190815260200160002054905092915050565b600033905090565b600073ffffffffffffffffffffffffffffffffffffffff168373ffffffffffffffffffffffffffffffffffffffff161415610cc2576040517f08c379a0000000000000000000000000000000000000000000000000000000008152600401610cb990611a7b565b60405180910390fd5b600073ffffffffffffffffffffffffffffffffffffffff168273ffffffffffffffffffffffffffffffffffffffff161415610d32576040517f08c379a0000000000000000000000000000000000000000000000000000000008152600401610d29906119fb565b60405180910390fd5b80600160008573ffffffffffffffffffffffffffffffffffffffff1673ffffffffffffffffffffffffffffffffffffffff16815260200190815260200160002060008473ffffffffffffffffffffffffffffffffffffffff1673ffffffffffffffffffffffffffffffffffffffff168152602001908152602001600020819055508173ffffffffffffffffffffffffffffffffffffffff168373ffffffffffffffffffffffffffffffffffffffff167f8c5be1e5ebec7d5bd14f71427d1e84f3dd0314c0f7b2291e5b200ac8c7c3b92583604051610e109190611abb565b60405180910390a3505050565b600073ffffffffffffffffffffffffffffffffffffffff168373ffffffffffffffffffffffffffffffffffffffff161415610e8d576040517f08c379a0000000000000000000000000000000000000000000000000000000008152600401610e8490611a5b565b60405180910390fd5b600073ffffffffffffffffffffffffffffffffffffffff168273ffffffffffffffffffffffffffffffffffffffff161415610efd576040517f08c379a0000000000000000000000000000000000000000000000000000000008152600401610ef4906119db565b60405180910390fd5b610f088383836113a5565b610f7381604051806060016040528060268152602001611ca8602691396000808773ffffffffffffffffffffffffffffffffffffffff1673ffffffffffffffffffffffffffffffffffffffff168152602001908152602001600020546110b29092919063ffffffff16565b6000808573ffffffffffffffffffffffffffffffffffffffff1673ffffffffffffffffffffffffffffffffffffffff16815260200190815260200160002081905550611006816000808573ffffffffffffffffffffffffffffffffffffffff1673ffffffffffffffffffffffffffffffffffffffff1681526020019081526020016000205461110d90919063ffffffff16565b6000808473ffffffffffffffffffffffffffffffffffffffff1673ffffffffffffffffffffffffffffffffffffffff168152602001908152602001600020819055508173ffffffffffffffffffffffffffffffffffffffff168373ffffffffffffffffffffffffffffffffffffffff167fddf252ad1be2c89b69c2b068fc378daa952ba7f163c4a11628f55a4df523b3ef836040516110a59190611abb565b60405180910390a3505050565b60008383111582906110fa576040517f08c379a00000000000000000000000000000000000000000000000000000000081526004016110f191906119b9565b60405180910390fd5b5060008385039050809150509392505050565b600080828401905083811015611158576040517f08c379a000000000000000000000000000000000000000000000000000000000815260040161114f90611a1b565b60405180910390fd5b8091505092915050565b600080600080849050600080602090505b885181116111fd57808901519350600182901b9150838310156111c05782846040516020016111a3929190611905565b6040516020818303038152906040528051906020012092506111f2565b83836040516020016111d3929190611905565b6040516020818303038152906040528051906020012092506001821791505b602081019050611173565b508682148194509450505050935093915050565b600073ffffffffffffffffffffffffffffffffffffffff168273ffffffffffffffffffffffffffffffffffffffff161415611281576040517f08c379a000000000000000000000000000000000000000000000000000000000815260040161127890611a9b565b60405180910390fd5b61128d600083836113a5565b6112a28160025461110d90919063ffffffff16565b6002819055506112f9816000808573ffffffffffffffffffffffffffffffffffffffff1673ffffffffffffffffffffffffffffffffffffffff1681526020019081526020016000205461110d90919063ffffffff16565b6000808473ffffffffffffffffffffffffffffffffffffffff1673ffffffffffffffffffffffffffffffffffffffff168152602001908152602001600020819055508173ffffffffffffffffffffffffffffffffffffffff16600073ffffffffffffffffffffffffffffffffffffffff167fddf252ad1be2c89b69c2b068fc378daa952ba7f163c4a11628f55a4df523b3ef836040516113999190611abb565b60405180910390a35050565b505050565b6000813590506113b981611c79565b92915050565b600082601f8301126113d057600080fd5b81356113e36113de82611b1e565b611af1565b915080825260208301602083018583830111156113ff57600080fd5b61140a838284611be1565b50505092915050565b60008135905061142281611c90565b92915050565b60006020828403121561143a57600080fd5b6000611448848285016113aa565b91505092915050565b6000806040838503121561146457600080fd5b6000611472858286016113aa565b9250506020611483858286016113aa565b9150509250929050565b6000806000606084860312156114a257600080fd5b60006114b0868287016113aa565b93505060206114c1868287016113aa565b92505060406114d286828701611413565b9150509250925092565b600080604083850312156114ef57600080fd5b60006114fd858286016113aa565b925050602061150e85828601611413565b9150509250929050565b60008060006060848603121561152d57600080fd5b600061153b868287016113aa565b935050602061154c86828701611413565b925050604084013567ffffffffffffffff81111561156957600080fd5b611575868287016113bf565b9150509250925092565b61158881611b82565b82525050565b61159f61159a82611b82565b611c23565b82525050565b6115ae81611b94565b82525050565b6115bd81611ba0565b82525050565b6115d46115cf82611ba0565b611c35565b82525050565b60006115e582611b4a565b6115ef8185611b60565b93506115ff818560208601611bf0565b61160881611c5b565b840191505092915050565b600061161e82611b55565b6116288185611b71565b9350611638818560208601611bf0565b61164181611c5b565b840191505092915050565b6000611659602383611b71565b91507f45524332303a207472616e7366657220746f20746865207a65726f206164647260008301527f65737300000000000000000000000000000000000000000000000000000000006020830152604082019050919050565b60006116bf602283611b71565b91507f45524332303a20617070726f766520746f20746865207a65726f20616464726560008301527f73730000000000000000000000000000000000000000000000000000000000006020830152604082019050919050565b6000611725601b83611b71565b91507f536166654d6174683a206164646974696f6e206f766572666c6f7700000000006000830152602082019050919050565b6000611765601483611b71565b91507f496e76616c6964206d65726b6c652070726f6f660000000000000000000000006000830152602082019050919050565b60006117a5602583611b71565b91507f45524332303a207472616e736665722066726f6d20746865207a65726f20616460008301527f64726573730000000000000000000000000000000000000000000000000000006020830152604082019050919050565b600061180b602483611b71565b91507f45524332303a20617070726f76652066726f6d20746865207a65726f2061646460008301527f72657373000000000000000000000000000000000000000000000000000000006020830152604082019050919050565b6000611871601f83611b71565b91507f45524332303a206d696e7420746f20746865207a65726f2061646472657373006000830152602082019050919050565b6118ad81611bca565b82525050565b6118c46118bf82611bca565b611c51565b82525050565b6118d381611bd4565b82525050565b60006118e5828561158e565b6014820191506118f582846118b3565b6020820191508190509392505050565b600061191182856115c3565b60208201915061192182846115c3565b6020820191508190509392505050565b6000602082019050611946600083018461157f565b92915050565b600060208201905061196160008301846115a5565b92915050565b600060208201905061197c60008301846115b4565b92915050565b6000604082019050818103600083015261199c81856115da565b905081810360208301526119b08184611613565b90509392505050565b600060208201905081810360008301526119d38184611613565b905092915050565b600060208201905081810360008301526119f48161164c565b9050919050565b60006020820190508181036000830152611a14816116b2565b9050919050565b60006020820190508181036000830152611a3481611718565b9050919050565b60006020820190508181036000830152611a5481611758565b9050919050565b60006020820190508181036000830152611a7481611798565b9050919050565b60006020820190508181036000830152611a94816117fe565b9050919050565b60006020820190508181036000830152611ab481611864565b9050919050565b6000602082019050611ad060008301846118a4565b92915050565b6000602082019050611aeb60008301846118ca565b92915050565b6000604051905081810181811067ffffffffffffffff82111715611b1457600080fd5b8060405250919050565b600067ffffffffffffffff821115611b3557600080fd5b601f19601f8301169050602081019050919050565b600081519050919050565b600081519050919050565b600082825260208201905092915050565b600082825260208201905092915050565b6000611b8d82611baa565b9050919050565b60008115159050919050565b6000819050919050565b600073ffffffffffffffffffffffffffffffffffffffff82169050919050565b6000819050919050565b600060ff82169050919050565b82818337600083830152505050565b60005b83811015611c0e578082015181840152602081019050611bf3565b83811115611c1d576000848401525b50505050565b6000611c2e82611c3f565b9050919050565b6000819050919050565b6000611c4a82611c6c565b9050919050565b6000819050919050565b6000601f19601f8301169050919050565b60008160601b9050919050565b611c8281611b82565b8114611c8d57600080fd5b50565b611c9981611bca565b8114611ca457600080fd5b5056fe45524332303a207472616e7366657220616d6f756e7420657863656564732062616c616e636545524332303a207472616e7366657220616d6f756e74206578636565647320616c6c6f77616e636545524332303a2064656372656173656420616c6c6f77616e63652062656c6f77207a65726fa26469706673582212208725eaca4ceb2deae46ea06989720e84c499ebc8060197dd46127c502039e3f264736f6c634300060c0033",
  "immutableReferences": {},
  "source": "pragma solidity ^0.6.0;\npragma experimental ABIEncoderV2;\n\nimport \"@openzeppelin/contracts/token/ERC20/ERC20.sol\";\n\n/**\n * @dev An ERC20-compatible token that allows users to claim their tokens from a merkle tree of preloaded balances.\n *      Developed as a demonstration of the 'l2 gateway' proto-standard.\n */\ncontract MerkleToken is ERC20 {\n    bytes32 public merkleRoot; // The merkle root of the set of preloaded balances\n    string gateway; // The URL of an l2 gateway server that can provide call data\n    mapping(uint=>uint) claimed; // A mapping of preloaded balances that are claimed so far\n\n    constructor(bytes32 root, string memory _gateway) ERC20(\"Merkle token\", \"MERKLE\") public {\n        merkleRoot = root;\n        gateway = _gateway;\n    }\n\n    // The resolver for the l2 gateway implementation of `claimableBalance`\n    function claimableBalanceWithProof(address addr, uint balance, bytes memory proof) external view returns(uint) {\n        (bool valid, uint idx) = checkProof(proof, merkleRoot, keccak256(abi.encodePacked(addr, balance)));\n        require(valid, \"Invalid merkle proof\");\n        if(claimed[idx >> 8] & (1 << (idx & 0xff)) == 0) {\n            return balance;\n        }\n        return 0;\n    }\n\n    // The resolver for the l2 gateway implementation of `claim`\n    function claimWithProof(address addr, uint balance, bytes memory proof) external {\n        (bool valid, uint idx) = checkProof(proof, merkleRoot, keccak256(abi.encodePacked(addr, balance)));\n        require(valid, \"Invalid merkle proof\");\n        if(claimed[idx >> 8] & (1 << (idx & 0xff)) == 0) {\n            claimed[idx >> 8] |= 1 << (idx & 0xff);\n            _mint(addr, balance);\n        }\n    }\n\n    // The stub implementation for the l2 gateway function `claim`\n    function claim(address addr) external view returns(bytes memory prefix, string memory url) {\n        return (abi.encodeWithSelector(MerkleToken.claimWithProof.selector, addr), gateway);\n    }\n\n    // The stub implementation for the l2 gateway function `claimableBalance`\n    function claimableBalance(address addr) external view returns(bytes memory prefix, string memory url) {\n        return (abi.encodeWithSelector(MerkleToken.claimableBalanceWithProof.selector, addr), gateway);\n    }\n\n    // Adapted from https://github.com/ameensol/merkle-tree-solidity/blob/master/src/MerkleProof.sol\n    function checkProof(bytes memory proof, bytes32 root, bytes32 hash) internal pure returns (bool, uint) {\n        bytes32 el;\n        bytes32 h = hash;\n        uint idx = 0;\n\n        for (uint256 i = 32; i <= proof.length; i += 32) {\n            assembly {\n                el := mload(add(proof, i))\n            }\n\n            idx <<= 1;\n            if (h < el) {\n                h = keccak256(abi.encodePacked(h, el));\n            } else {\n                h = keccak256(abi.encodePacked(el, h));\n                idx |= 1;\n            }\n        }\n\n        return (h == root, idx);\n    }\n}\n",
  "sourcePath": "/home/arachnid/Dropbox/projects/layer2/contract/contracts/MerkleToken.sol",
  "compiler": {
    "name": "solc",
    "version": "0.6.12+commit.27d51765.Emscripten.clang"
  },
  "schemaVersion": "3.2.3",
  "updatedAt": "2020-10-28T20:14:02.311Z",
  "networkType": "ethereum",
  "devdoc": {
    "details": "An ERC20-compatible token that allows users to claim their tokens from a merkle tree of preloaded balances.      Developed as a demonstration of the 'l2 gateway' proto-standard.",
    "kind": "dev",
    "methods": {
      "allowance(address,address)": {
        "details": "See {IERC20-allowance}."
      },
      "approve(address,uint256)": {
        "details": "See {IERC20-approve}. Requirements: - `spender` cannot be the zero address."
      },
      "balanceOf(address)": {
        "details": "See {IERC20-balanceOf}."
      },
      "decimals()": {
        "details": "Returns the number of decimals used to get its user representation. For example, if `decimals` equals `2`, a balance of `505` tokens should be displayed to a user as `5,05` (`505 / 10 ** 2`). Tokens usually opt for a value of 18, imitating the relationship between Ether and Wei. This is the value {ERC20} uses, unless {_setupDecimals} is called. NOTE: This information is only used for _display_ purposes: it in no way affects any of the arithmetic of the contract, including {IERC20-balanceOf} and {IERC20-transfer}."
      },
      "decreaseAllowance(address,uint256)": {
        "details": "Atomically decreases the allowance granted to `spender` by the caller. This is an alternative to {approve} that can be used as a mitigation for problems described in {IERC20-approve}. Emits an {Approval} event indicating the updated allowance. Requirements: - `spender` cannot be the zero address. - `spender` must have allowance for the caller of at least `subtractedValue`."
      },
      "increaseAllowance(address,uint256)": {
        "details": "Atomically increases the allowance granted to `spender` by the caller. This is an alternative to {approve} that can be used as a mitigation for problems described in {IERC20-approve}. Emits an {Approval} event indicating the updated allowance. Requirements: - `spender` cannot be the zero address."
      },
      "name()": {
        "details": "Returns the name of the token."
      },
      "symbol()": {
        "details": "Returns the symbol of the token, usually a shorter version of the name."
      },
      "totalSupply()": {
        "details": "See {IERC20-totalSupply}."
      },
      "transfer(address,uint256)": {
        "details": "See {IERC20-transfer}. Requirements: - `recipient` cannot be the zero address. - the caller must have a balance of at least `amount`."
      },
      "transferFrom(address,address,uint256)": {
        "details": "See {IERC20-transferFrom}. Emits an {Approval} event indicating the updated allowance. This is not required by the EIP. See the note at the beginning of {ERC20}; Requirements: - `sender` and `recipient` cannot be the zero address. - `sender` must have a balance of at least `amount`. - the caller must have allowance for ``sender``'s tokens of at least `amount`."
      }
    },
    "version": 1
  },
  "userdoc": {
    "kind": "user",
    "methods": {},
    "version": 1
  }
}